{
  "_format": "hh-sol-artifact-1",
  "contractName": "SecuredVotingSystem",
  "sourceName": "contracts/Voting.sol",
  "abi": [
    {
      "inputs": [],
      "stateMutability": "nonpayable",
      "type": "constructor"
    },
    {
      "anonymous": false,
      "inputs": [
        {
          "indexed": true,
          "internalType": "uint256",
          "name": "sessionId",
          "type": "uint256"
        },
        {
          "indexed": true,
          "internalType": "address",
          "name": "canceller",
          "type": "address"
        },
        {
          "indexed": false,
          "internalType": "string",
          "name": "reason",
          "type": "string"
        }
      ],
      "name": "SessionCancelled",
      "type": "event"
    },
    {
      "anonymous": false,
      "inputs": [
        {
          "indexed": true,
          "internalType": "uint256",
          "name": "sessionId",
          "type": "uint256"
        },
        {
          "indexed": true,
          "internalType": "address",
          "name": "closer",
          "type": "address"
        },
        {
          "indexed": false,
          "internalType": "uint256",
          "name": "totalVotes",
          "type": "uint256"
        }
      ],
      "name": "SessionClosed",
      "type": "event"
    },
    {
      "anonymous": false,
      "inputs": [
        {
          "indexed": true,
          "internalType": "uint256",
          "name": "sessionId",
          "type": "uint256"
        },
        {
          "indexed": true,
          "internalType": "address",
          "name": "creator",
          "type": "address"
        },
        {
          "indexed": false,
          "internalType": "string",
          "name": "title",
          "type": "string"
        },
        {
          "indexed": false,
          "internalType": "uint256",
          "name": "startTime",
          "type": "uint256"
        },
        {
          "indexed": false,
          "internalType": "uint256",
          "name": "endTime",
          "type": "uint256"
        },
        {
          "indexed": false,
          "internalType": "uint256",
          "name": "optionCount",
          "type": "uint256"
        }
      ],
      "name": "SessionCreated",
      "type": "event"
    },
    {
      "anonymous": false,
      "inputs": [
        {
          "indexed": true,
          "internalType": "address",
          "name": "user",
          "type": "address"
        },
        {
          "indexed": false,
          "internalType": "uint256",
          "name": "timestamp",
          "type": "uint256"
        }
      ],
      "name": "UserVerified",
      "type": "event"
    },
    {
      "anonymous": false,
      "inputs": [
        {
          "indexed": true,
          "internalType": "uint256",
          "name": "sessionId",
          "type": "uint256"
        },
        {
          "indexed": true,
          "internalType": "address",
          "name": "voter",
          "type": "address"
        },
        {
          "indexed": true,
          "internalType": "uint256",
          "name": "choice",
          "type": "uint256"
        },
        {
          "indexed": false,
          "internalType": "uint256",
          "name": "timestamp",
          "type": "uint256"
        }
      ],
      "name": "VoteCast",
      "type": "event"
    },
    {
      "anonymous": false,
      "inputs": [
        {
          "indexed": true,
          "internalType": "uint256",
          "name": "sessionId",
          "type": "uint256"
        },
        {
          "indexed": true,
          "internalType": "address",
          "name": "voter",
          "type": "address"
        },
        {
          "indexed": false,
          "internalType": "uint256",
          "name": "timestamp",
          "type": "uint256"
        }
      ],
      "name": "VoterDoubleVoteAttempted",
      "type": "event"
    },
    {
      "inputs": [
        {
          "internalType": "uint256",
          "name": "_sessionId",
          "type": "uint256"
        }
      ],
      "name": "attemptDoubleVote",
      "outputs": [],
      "stateMutability": "nonpayable",
      "type": "function"
    },
    {
      "inputs": [
        {
          "internalType": "uint256",
          "name": "_sessionId",
          "type": "uint256"
        },
        {
          "internalType": "string",
          "name": "_reason",
          "type": "string"
        }
      ],
      "name": "cancelSession",
      "outputs": [],
      "stateMutability": "nonpayable",
      "type": "function"
    },
    {
      "inputs": [
        {
          "internalType": "uint256",
          "name": "_sessionId",
          "type": "uint256"
        },
        {
          "internalType": "uint256",
          "name": "_choice",
          "type": "uint256"
        }
      ],
      "name": "castVote",
      "outputs": [],
      "stateMutability": "nonpayable",
      "type": "function"
    },
    {
      "inputs": [
        {
          "internalType": "uint256",
          "name": "_sessionId",
          "type": "uint256"
        }
      ],
      "name": "closeSession",
      "outputs": [],
      "stateMutability": "nonpayable",
      "type": "function"
    },
    {
      "inputs": [],
      "name": "contractOwner",
      "outputs": [
        {
          "internalType": "address",
          "name": "",
          "type": "address"
        }
      ],
      "stateMutability": "view",
      "type": "function"
    },
    {
      "inputs": [
        {
          "internalType": "string",
          "name": "_title",
          "type": "string"
        },
        {
          "internalType": "string",
          "name": "_description",
          "type": "string"
        },
        {
          "internalType": "string[]",
          "name": "_options",
          "type": "string[]"
        },
        {
          "internalType": "uint256",
          "name": "_startTime",
          "type": "uint256"
        },
        {
          "internalType": "uint256",
          "name": "_endTime",
          "type": "uint256"
        },
        {
          "internalType": "bool",
          "name": "_requiresHumanVerification",
          "type": "bool"
        }
      ],
      "name": "createSession",
      "outputs": [
        {
          "internalType": "uint256",
          "name": "",
          "type": "uint256"
        }
      ],
      "stateMutability": "nonpayable",
      "type": "function"
    },
    {
      "inputs": [],
      "name": "getContractBalance",
      "outputs": [
        {
          "internalType": "uint256",
          "name": "",
          "type": "uint256"
        }
      ],
      "stateMutability": "view",
      "type": "function"
    },
    {
      "inputs": [
        {
          "internalType": "uint256",
          "name": "_sessionId",
          "type": "uint256"
        }
      ],
      "name": "getResults",
      "outputs": [
        {
          "internalType": "uint256[]",
          "name": "",
          "type": "uint256[]"
        }
      ],
      "stateMutability": "view",
      "type": "function"
    },
    {
      "inputs": [
        {
          "internalType": "uint256",
          "name": "_sessionId",
          "type": "uint256"
        }
      ],
      "name": "getSessionDetails",
      "outputs": [
        {
          "internalType": "address",
          "name": "creator",
          "type": "address"
        },
        {
          "internalType": "string",
          "name": "title",
          "type": "string"
        },
        {
          "internalType": "string",
          "name": "description",
          "type": "string"
        },
        {
          "internalType": "uint256",
          "name": "startTime",
          "type": "uint256"
        },
        {
          "internalType": "uint256",
          "name": "endTime",
          "type": "uint256"
        },
        {
          "internalType": "uint256",
          "name": "totalVotes",
          "type": "uint256"
        },
        {
          "internalType": "bool",
          "name": "closed",
          "type": "bool"
        },
        {
          "internalType": "bool",
          "name": "cancelled",
          "type": "bool"
        },
        {
          "internalType": "uint256",
          "name": "optionCount",
          "type": "uint256"
        }
      ],
      "stateMutability": "view",
      "type": "function"
    },
    {
      "inputs": [
        {
          "internalType": "uint256",
          "name": "_sessionId",
          "type": "uint256"
        }
      ],
      "name": "getSessionOptions",
      "outputs": [
        {
          "internalType": "string[]",
          "name": "",
          "type": "string[]"
        }
      ],
      "stateMutability": "view",
      "type": "function"
    },
    {
      "inputs": [],
      "name": "getTotalSessions",
      "outputs": [
        {
          "internalType": "uint256",
          "name": "",
          "type": "uint256"
        }
      ],
      "stateMutability": "view",
      "type": "function"
    },
    {
      "inputs": [
        {
          "internalType": "uint256",
          "name": "_sessionId",
          "type": "uint256"
        }
      ],
      "name": "getTotalVotes",
      "outputs": [
        {
          "internalType": "uint256",
          "name": "",
          "type": "uint256"
        }
      ],
      "stateMutability": "view",
      "type": "function"
    },
    {
      "inputs": [
        {
          "internalType": "address",
          "name": "_creator",
          "type": "address"
        }
      ],
      "name": "getUserCreatedSessions",
      "outputs": [
        {
          "internalType": "uint256[]",
          "name": "",
          "type": "uint256[]"
        }
      ],
      "stateMutability": "view",
      "type": "function"
    },
    {
      "inputs": [
        {
          "internalType": "address",
          "name": "_user",
          "type": "address"
        }
      ],
      "name": "getUserReputation",
      "outputs": [
        {
          "internalType": "uint256",
          "name": "",
          "type": "uint256"
        }
      ],
      "stateMutability": "view",
      "type": "function"
    },
    {
      "inputs": [
        {
          "internalType": "uint256",
          "name": "_sessionId",
          "type": "uint256"
        },
        {
          "internalType": "address",
          "name": "_voter",
          "type": "address"
        }
      ],
      "name": "getUserVote",
      "outputs": [
        {
          "internalType": "uint256",
          "name": "",
          "type": "uint256"
        }
      ],
      "stateMutability": "view",
      "type": "function"
    },
    {
      "inputs": [
        {
          "internalType": "uint256",
          "name": "_sessionId",
          "type": "uint256"
        }
      ],
      "name": "getVoteHistory",
      "outputs": [
        {
          "components": [
            {
              "internalType": "uint256",
              "name": "sessionId",
              "type": "uint256"
            },
            {
              "internalType": "address",
              "name": "voter",
              "type": "address"
            },
            {
              "internalType": "uint256",
              "name": "choice",
              "type": "uint256"
            },
            {
              "internalType": "uint256",
              "name": "timestamp",
              "type": "uint256"
            },
            {
              "internalType": "bytes32",
              "name": "transactionHash",
              "type": "bytes32"
            }
          ],
          "internalType": "struct SecuredVotingSystem.Vote[]",
          "name": "",
          "type": "tuple[]"
        }
      ],
      "stateMutability": "view",
      "type": "function"
    },
    {
      "inputs": [
        {
          "internalType": "uint256",
          "name": "_sessionId",
          "type": "uint256"
        },
        {
          "internalType": "address",
          "name": "_voter",
          "type": "address"
        }
      ],
      "name": "hasVoted",
      "outputs": [
        {
          "internalType": "bool",
          "name": "",
          "type": "bool"
        }
      ],
      "stateMutability": "view",
      "type": "function"
    },
    {
      "inputs": [
        {
          "internalType": "address",
          "name": "_user",
          "type": "address"
        }
      ],
      "name": "isUserVerified",
      "outputs": [
        {
          "internalType": "bool",
          "name": "",
          "type": "bool"
        }
      ],
      "stateMutability": "view",
      "type": "function"
    },
    {
      "inputs": [],
      "name": "sessionCounter",
      "outputs": [
        {
          "internalType": "uint256",
          "name": "",
          "type": "uint256"
        }
      ],
      "stateMutability": "view",
      "type": "function"
    },
    {
      "inputs": [
        {
          "internalType": "uint256",
          "name": "",
          "type": "uint256"
        }
      ],
      "name": "sessionMetadata",
      "outputs": [
        {
          "internalType": "string",
          "name": "ipfsHash",
          "type": "string"
        },
        {
          "internalType": "uint256",
          "name": "requiredVerification",
          "type": "uint256"
        },
        {
          "internalType": "bool",
          "name": "requiresHumanVerification",
          "type": "bool"
        }
      ],
      "stateMutability": "view",
      "type": "function"
    },
    {
      "inputs": [
        {
          "internalType": "uint256",
          "name": "",
          "type": "uint256"
        },
        {
          "internalType": "uint256",
          "name": "",
          "type": "uint256"
        }
      ],
      "name": "sessionVotes",
      "outputs": [
        {
          "internalType": "uint256",
          "name": "sessionId",
          "type": "uint256"
        },
        {
          "internalType": "address",
          "name": "voter",
          "type": "address"
        },
        {
          "internalType": "uint256",
          "name": "choice",
          "type": "uint256"
        },
        {
          "internalType": "uint256",
          "name": "timestamp",
          "type": "uint256"
        },
        {
          "internalType": "bytes32",
          "name": "transactionHash",
          "type": "bytes32"
        }
      ],
      "stateMutability": "view",
      "type": "function"
    },
    {
      "inputs": [
        {
          "internalType": "address",
          "name": "_newOwner",
          "type": "address"
        }
      ],
      "name": "transferOwnership",
      "outputs": [],
      "stateMutability": "nonpayable",
      "type": "function"
    },
    {
      "inputs": [
        {
          "internalType": "address",
          "name": "",
          "type": "address"
        }
      ],
      "name": "userReputation",
      "outputs": [
        {
          "internalType": "uint256",
          "name": "",
          "type": "uint256"
        }
      ],
      "stateMutability": "view",
      "type": "function"
    },
    {
      "inputs": [
        {
          "internalType": "address",
          "name": "",
          "type": "address"
        },
        {
          "internalType": "uint256",
          "name": "",
          "type": "uint256"
        }
      ],
      "name": "userSessions",
      "outputs": [
        {
          "internalType": "uint256",
          "name": "",
          "type": "uint256"
        }
      ],
      "stateMutability": "view",
      "type": "function"
    },
    {
      "inputs": [
        {
          "internalType": "address",
          "name": "",
          "type": "address"
        }
      ],
      "name": "verifiedUsers",
      "outputs": [
        {
          "internalType": "bool",
          "name": "",
          "type": "bool"
        }
      ],
      "stateMutability": "view",
      "type": "function"
    },
    {
      "inputs": [
        {
          "internalType": "address",
          "name": "_user",
          "type": "address"
        }
      ],
      "name": "verifyUser",
      "outputs": [],
      "stateMutability": "nonpayable",
      "type": "function"
    },
    {
      "inputs": [
        {
          "internalType": "uint256",
          "name": "",
          "type": "uint256"
        }
      ],
      "name": "votingSessions",
      "outputs": [
        {
          "internalType": "uint256",
          "name": "id",
          "type": "uint256"
        },
        {
          "internalType": "address",
          "name": "creator",
          "type": "address"
        },
        {
          "internalType": "string",
          "name": "title",
          "type": "string"
        },
        {
          "internalType": "string",
          "name": "description",
          "type": "string"
        },
        {
          "internalType": "uint256",
          "name": "startTime",
          "type": "uint256"
        },
        {
          "internalType": "uint256",
          "name": "endTime",
          "type": "uint256"
        },
        {
          "internalType": "uint256",
          "name": "totalVotes",
          "type": "uint256"
        },
        {
          "internalType": "bool",
          "name": "closed",
          "type": "bool"
        },
        {
          "internalType": "bool",
          "name": "cancelled",
          "type": "bool"
        }
      ],
      "stateMutability": "view",
      "type": "function"
    }
  ],
  "bytecode": "0x608060405234801561001057600080fd5b5033600560006101000a81548173ffffffffffffffffffffffffffffffffffffffff021916908373ffffffffffffffffffffffffffffffffffffffff160217905550600060048190555061400c806100696000396000f3fe608060405234801561001057600080fd5b50600436106101a95760003560e01c80636f9fb98a116100f9578063cc64e2af11610097578063d903be5d11610071578063d903be5d14610564578063e35fe36614610598578063e503bb05146105c8578063f2fde38b146105f8576101a9565b8063cc64e2af146104f6578063ce606ee014610514578063d06ec07414610532576101a9565b8063a3bfdf47116100d3578063a3bfdf471461044a578063ace417e014610466578063af33edc014610496578063baccbfdb146104c6576101a9565b80636f9fb98a146103cc57806381a60c0d146103ea5780638346488e1461041a576101a9565b80632ce35e111161016657806359d76a341161014057806359d76a341461032a5780635b74f6b5146103625780636073e4b71461037e5780636d597d131461039c576101a9565b80632ce35e11146102ae57806343859632146102de5780634d8131201461030e576101a9565b80630134d728146101ae57806303c7881a146101de57806305df01521461020e5780631186eb7c1461022a5780631ae0555f146102625780632c0a3f8914610292575b600080fd5b6101c860048036038101906101c391906126f6565b610614565b6040516101d59190612875565b60405180910390f35b6101f860048036038101906101f391906128f5565b610755565b6040516102059190612944565b60405180910390f35b610228600480360381019061022391906126f6565b6108a4565b005b610244600480360381019061023f91906126f6565b6109e9565b604051610259999897969594939291906129d3565b60405180910390f35b61027c60048036038101906102779190612cb5565b610b81565b6040516102899190612944565b60405180910390f35b6102ac60048036038101906102a79190612d96565b610e9d565b005b6102c860048036038101906102c391906126f6565b6115c4565b6040516102d59190612944565b60405180910390f35b6102f860048036038101906102f391906128f5565b611636565b6040516103059190612dd6565b60405180910390f35b61032860048036038101906103239190612df1565b6116f3565b005b610344600480360381019061033f91906126f6565b6118b9565b60405161035999989796959493929190612e1e565b60405180910390f35b61037c60048036038101906103779190612eb9565b611ad0565b005b610386611cf3565b6040516103939190612944565b60405180910390f35b6103b660048036038101906103b19190612f15565b611cfd565b6040516103c39190612944565b60405180910390f35b6103d4611d2e565b6040516103e19190612944565b60405180910390f35b61040460048036038101906103ff91906126f6565b611d36565b6040516104119190613013565b60405180910390f35b610434600480360381019061042f91906126f6565b611e5a565b6040516104419190613174565b60405180910390f35b610464600480360381019061045f91906126f6565b611f9d565b005b610480600480360381019061047b9190612df1565b6121c3565b60405161048d9190612dd6565b60405180910390f35b6104b060048036038101906104ab9190612df1565b612219565b6040516104bd9190613013565b60405180910390f35b6104e060048036038101906104db9190612df1565b6122b0565b6040516104ed9190612944565b60405180910390f35b6104fe6122f9565b60405161050b9190612944565b60405180910390f35b61051c6122ff565b6040516105299190613196565b60405180910390f35b61054c600480360381019061054791906126f6565b612325565b60405161055b939291906131b1565b60405180910390f35b61057e60048036038101906105799190612d96565b6123e4565b60405161058f9594939291906131fe565b60405180910390f35b6105b260048036038101906105ad9190612df1565b612457565b6040516105bf9190612dd6565b60405180910390f35b6105e260048036038101906105dd9190612df1565b612477565b6040516105ef9190612944565b60405180910390f35b610612600480360381019061060d9190612df1565b61248f565b005b60608160045481108015610629575060008110155b610668576040517f08c379a000000000000000000000000000000000000000000000000000000000815260040161065f9061329d565b60405180910390fd5b600080848152602001908152602001600020600401805480602002602001604051908101604052809291908181526020016000905b828210156107495783829060005260206000200180546106bc906132ec565b80601f01602080910402602001604051908101604052809291908181526020018280546106e8906132ec565b80156107355780601f1061070a57610100808354040283529160200191610735565b820191906000526020600020905b81548152906001019060200180831161071857829003601f168201915b50505050508152602001906001019061069d565b50505050915050919050565b6000826004548110801561076a575060008110155b6107a9576040517f08c379a00000000000000000000000000000000000000000000000000000000081526004016107a09061329d565b60405180910390fd5b60008085815260200190815260200160002060090160008473ffffffffffffffffffffffffffffffffffffffff1673ffffffffffffffffffffffffffffffffffffffff16815260200190815260200160002060009054906101000a900460ff16610848576040517f08c379a000000000000000000000000000000000000000000000000000000000815260040161083f90613369565b60405180910390fd5b600080858152602001908152602001600020600b0160008473ffffffffffffffffffffffffffffffffffffffff1673ffffffffffffffffffffffffffffffffffffffff1681526020019081526020016000205491505092915050565b80600454811080156108b7575060008110155b6108f6576040517f08c379a00000000000000000000000000000000000000000000000000000000081526004016108ed9061329d565b60405180910390fd5b60008083815260200190815260200160002060090160003373ffffffffffffffffffffffffffffffffffffffff1673ffffffffffffffffffffffffffffffffffffffff16815260200190815260200160002060009054906101000a900460ff16156109e5573373ffffffffffffffffffffffffffffffffffffffff16827f869101e88ee0d09f0757c1ab235696b936d972d61aa3cc5eeb706cbc20afaa8b426040516109a29190612944565b60405180910390a36040517f08c379a00000000000000000000000000000000000000000000000000000000081526004016109dc906133fb565b60405180910390fd5b5050565b60006020528060005260406000206000915090508060000154908060010160009054906101000a900473ffffffffffffffffffffffffffffffffffffffff1690806002018054610a38906132ec565b80601f0160208091040260200160405190810160405280929190818152602001828054610a64906132ec565b8015610ab15780601f10610a8657610100808354040283529160200191610ab1565b820191906000526020600020905b815481529060010190602001808311610a9457829003601f168201915b505050505090806003018054610ac6906132ec565b80601f0160208091040260200160405190810160405280929190818152602001828054610af2906132ec565b8015610b3f5780601f10610b1457610100808354040283529160200191610b3f565b820191906000526020600020905b815481529060010190602001808311610b2257829003601f168201915b5050505050908060050154908060060154908060070154908060080160009054906101000a900460ff16908060080160019054906101000a900460ff16905089565b6000600285511015610bc8576040517f08c379a0000000000000000000000000000000000000000000000000000000008152600401610bbf90613467565b60405180910390fd5b428411610c0a576040517f08c379a0000000000000000000000000000000000000000000000000000000008152600401610c01906134d3565b60405180910390fd5b838311610c4c576040517f08c379a0000000000000000000000000000000000000000000000000000000008152600401610c4390613565565b60405180910390fd5b6000875111610c90576040517f08c379a0000000000000000000000000000000000000000000000000000000008152600401610c87906135d1565b60405180910390fd5b6000600454905060008060008381526020019081526020016000209050818160000181905550338160010160006101000a81548173ffffffffffffffffffffffffffffffffffffffff021916908373ffffffffffffffffffffffffffffffffffffffff16021790555088816002019081610d0a919061379d565b5087816003019081610d1c919061379d565b5086816004019080519060200190610d359291906125d2565b508581600501819055508481600601819055506000816007018190555060008160080160006101000a81548160ff02191690831515021790555060008160080160016101000a81548160ff021916908315150217905550836003600084815260200190815260200160002060020160006101000a81548160ff021916908315150217905550600260003373ffffffffffffffffffffffffffffffffffffffff1673ffffffffffffffffffffffffffffffffffffffff16815260200190815260200160002082908060018154018082558091505060019003906000526020600020016000909190919091505560046000815480929190610e339061389e565b91905055503373ffffffffffffffffffffffffffffffffffffffff16827f1760c14b5f441b3b6b860be96f943d475633b9498ad99e50dfc461282ce2b5038b89898c51604051610e8694939291906138e6565b60405180910390a381925050509695505050505050565b8160045481108015610eb0575060008110155b610eef576040517f08c379a0000000000000000000000000000000000000000000000000000000008152600401610ee69061329d565b60405180910390fd5b82600080600083815260200190815260200160002090508060080160009054906101000a900460ff16158015610f3457508060080160019054906101000a900460ff16155b610f73576040517f08c379a0000000000000000000000000000000000000000000000000000000008152600401610f6a9061397e565b60405180910390fd5b8060050154421015610fba576040517f08c379a0000000000000000000000000000000000000000000000000000000008152600401610fb1906139ea565b60405180910390fd5b8060060154421115611001576040517f08c379a0000000000000000000000000000000000000000000000000000000008152600401610ff890613a56565b60405180910390fd5b8460008082815260200190815260200160002060090160003373ffffffffffffffffffffffffffffffffffffffff1673ffffffffffffffffffffffffffffffffffffffff16815260200190815260200160002060009054906101000a900460ff16156110a2576040517f08c379a000000000000000000000000000000000000000000000000000000000815260040161109990613ac2565b60405180910390fd5b85856000808381526020019081526020016000206004018054905081106110fe576040517f08c379a00000000000000000000000000000000000000000000000000000000081526004016110f590613b2e565b60405180910390fd5b6000600360008a815260200190815260200160002060405180608001604052908160008201805461112e906132ec565b80601f016020809104026020016040519081016040528092919081815260200182805461115a906132ec565b80156111a75780601f1061117c576101008083540402835291602001916111a7565b820191906000526020600020905b81548152906001019060200180831161118a57829003601f168201915b50505050508152602001600182015481526020016002820160009054906101000a900460ff161515151581526020016003820180548060200260200160405190810160405280929190818152602001828054801561125a57602002820191906000526020600020905b8160009054906101000a900473ffffffffffffffffffffffffffffffffffffffff1673ffffffffffffffffffffffffffffffffffffffff1681526020019060010190808311611210575b50505050508152505090508060400151156112fc57600660003373ffffffffffffffffffffffffffffffffffffffff1673ffffffffffffffffffffffffffffffffffffffff16815260200190815260200160002060009054906101000a900460ff166112fb576040517f08c379a00000000000000000000000000000000000000000000000000000000081526004016112f290613b9a565b60405180910390fd5b5b60008060008b8152602001908152602001600020905060018160090160003373ffffffffffffffffffffffffffffffffffffffff1673ffffffffffffffffffffffffffffffffffffffff16815260200190815260200160002060006101000a81548160ff02191690831515021790555080600a0160008a815260200190815260200160002060008154809291906113929061389e565b91905055508881600b0160003373ffffffffffffffffffffffffffffffffffffffff1673ffffffffffffffffffffffffffffffffffffffff168152602001908152602001600020819055508060070160008154809291906113f29061389e565b919050555060006040518060a001604052808c81526020013373ffffffffffffffffffffffffffffffffffffffff1681526020018b81526020014281526020018c334260405160200161144793929190613bba565b604051602081830303815290604052805190602001208152509050600160008c81526020019081526020016000208190806001815401808255809150506001900390600052602060002090600502016000909190919091506000820151816000015560208201518160010160006101000a81548173ffffffffffffffffffffffffffffffffffffffff021916908373ffffffffffffffffffffffffffffffffffffffff16021790555060408201518160020155606082015181600301556080820151816004015550506001600760003373ffffffffffffffffffffffffffffffffffffffff1673ffffffffffffffffffffffffffffffffffffffff16815260200190815260200160002060008282546115609190613bf1565b92505081905550893373ffffffffffffffffffffffffffffffffffffffff168c7f0271f53eebbe20450d9578f28ec279231556c34545b30e2278d754ffd39cd63c426040516115af9190612944565b60405180910390a45050505050505050505050565b600081600454811080156115d9575060008110155b611618576040517f08c379a000000000000000000000000000000000000000000000000000000000815260040161160f9061329d565b60405180910390fd5b60008084815260200190815260200160002060070154915050919050565b6000826004548110801561164b575060008110155b61168a576040517f08c379a00000000000000000000000000000000000000000000000000000000081526004016116819061329d565b60405180910390fd5b60008085815260200190815260200160002060090160008473ffffffffffffffffffffffffffffffffffffffff1673ffffffffffffffffffffffffffffffffffffffff16815260200190815260200160002060009054906101000a900460ff1691505092915050565b600560009054906101000a900473ffffffffffffffffffffffffffffffffffffffff1673ffffffffffffffffffffffffffffffffffffffff163373ffffffffffffffffffffffffffffffffffffffff1614611783576040517f08c379a000000000000000000000000000000000000000000000000000000000815260040161177a90613c71565b60405180910390fd5b600660008273ffffffffffffffffffffffffffffffffffffffff1673ffffffffffffffffffffffffffffffffffffffff16815260200190815260200160002060009054906101000a900460ff1615611810576040517f08c379a000000000000000000000000000000000000000000000000000000000815260040161180790613cdd565b60405180910390fd5b6001600660008373ffffffffffffffffffffffffffffffffffffffff1673ffffffffffffffffffffffffffffffffffffffff16815260200190815260200160002060006101000a81548160ff0219169083151502179055508073ffffffffffffffffffffffffffffffffffffffff167f22b3126528cda4618d13b6945f5e96fe53a5125f386aa591ee89134e2681c621426040516118ae9190612944565b60405180910390a250565b600060608060008060008060008089600454811080156118da575060008110155b611919576040517f08c379a00000000000000000000000000000000000000000000000000000000081526004016119109061329d565b60405180910390fd5b60008060008d815260200190815260200160002090508060010160009054906101000a900473ffffffffffffffffffffffffffffffffffffffff1681600201826003018360050154846006015485600701548660080160009054906101000a900460ff168760080160019054906101000a900460ff1688600401805490508780546119a3906132ec565b80601f01602080910402602001604051908101604052809291908181526020018280546119cf906132ec565b8015611a1c5780601f106119f157610100808354040283529160200191611a1c565b820191906000526020600020905b8154815290600101906020018083116119ff57829003601f168201915b50505050509750868054611a2f906132ec565b80601f0160208091040260200160405190810160405280929190818152602001828054611a5b906132ec565b8015611aa85780601f10611a7d57610100808354040283529160200191611aa8565b820191906000526020600020905b815481529060010190602001808311611a8b57829003601f168201915b505050505096509a509a509a509a509a509a509a509a509a5050509193959799909294969850565b8160045481108015611ae3575060008110155b611b22576040517f08c379a0000000000000000000000000000000000000000000000000000000008152600401611b199061329d565b60405180910390fd5b8260008082815260200190815260200160002060010160009054906101000a900473ffffffffffffffffffffffffffffffffffffffff1673ffffffffffffffffffffffffffffffffffffffff163373ffffffffffffffffffffffffffffffffffffffff1614611bc6576040517f08c379a0000000000000000000000000000000000000000000000000000000008152600401611bbd90613d49565b60405180910390fd5b600080600086815260200190815260200160002090508060080160009054906101000a900460ff1615611c2e576040517f08c379a0000000000000000000000000000000000000000000000000000000008152600401611c2590613db5565b60405180910390fd5b8060080160019054906101000a900460ff1615611c80576040517f08c379a0000000000000000000000000000000000000000000000000000000008152600401611c7790613e21565b60405180910390fd5b60018160080160016101000a81548160ff0219169083151502179055503373ffffffffffffffffffffffffffffffffffffffff16857f1816d376e9c24be2f5548a9dd2f67f63361f4635662b3a2afc90b5d33a3634b086604051611ce49190613e41565b60405180910390a35050505050565b6000600454905090565b60026020528160005260406000208181548110611d1957600080fd5b90600052602060002001600091509150505481565b600047905090565b60608160045481108015611d4b575060008110155b611d8a576040517f08c379a0000000000000000000000000000000000000000000000000000000008152600401611d819061329d565b60405180910390fd5b600080600085815260200190815260200160002090506000816004018054905067ffffffffffffffff811115611dc357611dc2612a78565b5b604051908082528060200260200182016040528015611df15781602001602082028036833780820191505090505b50905060005b8260040180549050811015611e4e5782600a01600082815260200190815260200160002054828281518110611e2f57611e2e613e63565b5b6020026020010181815250508080611e469061389e565b915050611df7565b50809350505050919050565b60608160045481108015611e6f575060008110155b611eae576040517f08c379a0000000000000000000000000000000000000000000000000000000008152600401611ea59061329d565b60405180910390fd5b60016000848152602001908152602001600020805480602002602001604051908101604052809291908181526020016000905b82821015611f9157838290600052602060002090600502016040518060a0016040529081600082015481526020016001820160009054906101000a900473ffffffffffffffffffffffffffffffffffffffff1673ffffffffffffffffffffffffffffffffffffffff1673ffffffffffffffffffffffffffffffffffffffff168152602001600282015481526020016003820154815260200160048201548152505081526020019060010190611ee1565b50505050915050919050565b8060045481108015611fb0575060008110155b611fef576040517f08c379a0000000000000000000000000000000000000000000000000000000008152600401611fe69061329d565b60405180910390fd5b8160008082815260200190815260200160002060010160009054906101000a900473ffffffffffffffffffffffffffffffffffffffff1673ffffffffffffffffffffffffffffffffffffffff163373ffffffffffffffffffffffffffffffffffffffff1614612093576040517f08c379a000000000000000000000000000000000000000000000000000000000815260040161208a90613d49565b60405180910390fd5b600080600085815260200190815260200160002090508060080160009054906101000a900460ff16156120fb576040517f08c379a00000000000000000000000000000000000000000000000000000000081526004016120f290613ede565b60405180910390fd5b8060080160019054906101000a900460ff161561214d576040517f08c379a000000000000000000000000000000000000000000000000000000000815260040161214490613f4a565b60405180910390fd5b60018160080160006101000a81548160ff0219169083151502179055503373ffffffffffffffffffffffffffffffffffffffff16847f490f5d5c116a0644ff233192ebb76615c49e2826804fa95de50e0f79c5afdebc83600701546040516121b59190612944565b60405180910390a350505050565b6000600660008373ffffffffffffffffffffffffffffffffffffffff1673ffffffffffffffffffffffffffffffffffffffff16815260200190815260200160002060009054906101000a900460ff169050919050565b6060600260008373ffffffffffffffffffffffffffffffffffffffff1673ffffffffffffffffffffffffffffffffffffffff1681526020019081526020016000208054806020026020016040519081016040528092919081815260200182805480156122a457602002820191906000526020600020905b815481526020019060010190808311612290575b50505050509050919050565b6000600760008373ffffffffffffffffffffffffffffffffffffffff1673ffffffffffffffffffffffffffffffffffffffff168152602001908152602001600020549050919050565b60045481565b600560009054906101000a900473ffffffffffffffffffffffffffffffffffffffff1681565b6003602052806000526040600020600091509050806000018054612348906132ec565b80601f0160208091040260200160405190810160405280929190818152602001828054612374906132ec565b80156123c15780601f10612396576101008083540402835291602001916123c1565b820191906000526020600020905b8154815290600101906020018083116123a457829003601f168201915b5050505050908060010154908060020160009054906101000a900460ff16905083565b6001602052816000526040600020818154811061240057600080fd5b9060005260206000209060050201600091509150508060000154908060010160009054906101000a900473ffffffffffffffffffffffffffffffffffffffff16908060020154908060030154908060040154905085565b60066020528060005260406000206000915054906101000a900460ff1681565b60076020528060005260406000206000915090505481565b600560009054906101000a900473ffffffffffffffffffffffffffffffffffffffff1673ffffffffffffffffffffffffffffffffffffffff163373ffffffffffffffffffffffffffffffffffffffff161461251f576040517f08c379a000000000000000000000000000000000000000000000000000000000815260040161251690613c71565b60405180910390fd5b600073ffffffffffffffffffffffffffffffffffffffff168173ffffffffffffffffffffffffffffffffffffffff160361258e576040517f08c379a000000000000000000000000000000000000000000000000000000000815260040161258590613fb6565b60405180910390fd5b80600560006101000a81548173ffffffffffffffffffffffffffffffffffffffff021916908373ffffffffffffffffffffffffffffffffffffffff16021790555050565b82805482825590600052602060002090810192821561261a579160200282015b82811115612619578251829081612609919061379d565b50916020019190600101906125f2565b5b509050612627919061262b565b5090565b5b8082111561264b5760008181612642919061264f565b5060010161262c565b5090565b50805461265b906132ec565b6000825580601f1061266d575061268c565b601f01602090049060005260206000209081019061268b919061268f565b5b50565b5b808211156126a8576000816000905550600101612690565b5090565b6000604051905090565b600080fd5b600080fd5b6000819050919050565b6126d3816126c0565b81146126de57600080fd5b50565b6000813590506126f0816126ca565b92915050565b60006020828403121561270c5761270b6126b6565b5b600061271a848285016126e1565b91505092915050565b600081519050919050565b600082825260208201905092915050565b6000819050602082019050919050565b600081519050919050565b600082825260208201905092915050565b60005b8381101561278957808201518184015260208101905061276e565b60008484015250505050565b6000601f19601f8301169050919050565b60006127b18261274f565b6127bb818561275a565b93506127cb81856020860161276b565b6127d481612795565b840191505092915050565b60006127eb83836127a6565b905092915050565b6000602082019050919050565b600061280b82612723565b612815818561272e565b9350836020820285016128278561273f565b8060005b85811015612863578484038952815161284485826127df565b945061284f836127f3565b925060208a0199505060018101905061282b565b50829750879550505050505092915050565b6000602082019050818103600083015261288f8184612800565b905092915050565b600073ffffffffffffffffffffffffffffffffffffffff82169050919050565b60006128c282612897565b9050919050565b6128d2816128b7565b81146128dd57600080fd5b50565b6000813590506128ef816128c9565b92915050565b6000806040838503121561290c5761290b6126b6565b5b600061291a858286016126e1565b925050602061292b858286016128e0565b9150509250929050565b61293e816126c0565b82525050565b60006020820190506129596000830184612935565b92915050565b612968816128b7565b82525050565b600082825260208201905092915050565b600061298a8261274f565b612994818561296e565b93506129a481856020860161276b565b6129ad81612795565b840191505092915050565b60008115159050919050565b6129cd816129b8565b82525050565b6000610120820190506129e9600083018c612935565b6129f6602083018b61295f565b8181036040830152612a08818a61297f565b90508181036060830152612a1c818961297f565b9050612a2b6080830188612935565b612a3860a0830187612935565b612a4560c0830186612935565b612a5260e08301856129c4565b612a606101008301846129c4565b9a9950505050505050505050565b600080fd5b600080fd5b7f4e487b7100000000000000000000000000000000000000000000000000000000600052604160045260246000fd5b612ab082612795565b810181811067ffffffffffffffff82111715612acf57612ace612a78565b5b80604052505050565b6000612ae26126ac565b9050612aee8282612aa7565b919050565b600067ffffffffffffffff821115612b0e57612b0d612a78565b5b612b1782612795565b9050602081019050919050565b82818337600083830152505050565b6000612b46612b4184612af3565b612ad8565b905082815260208101848484011115612b6257612b61612a73565b5b612b6d848285612b24565b509392505050565b600082601f830112612b8a57612b89612a6e565b5b8135612b9a848260208601612b33565b91505092915050565b600067ffffffffffffffff821115612bbe57612bbd612a78565b5b602082029050602081019050919050565b600080fd5b6000612be7612be284612ba3565b612ad8565b90508083825260208201905060208402830185811115612c0a57612c09612bcf565b5b835b81811015612c5157803567ffffffffffffffff811115612c2f57612c2e612a6e565b5b808601612c3c8982612b75565b85526020850194505050602081019050612c0c565b5050509392505050565b600082601f830112612c7057612c6f612a6e565b5b8135612c80848260208601612bd4565b91505092915050565b612c92816129b8565b8114612c9d57600080fd5b50565b600081359050612caf81612c89565b92915050565b60008060008060008060c08789031215612cd257612cd16126b6565b5b600087013567ffffffffffffffff811115612cf057612cef6126bb565b5b612cfc89828a01612b75565b965050602087013567ffffffffffffffff811115612d1d57612d1c6126bb565b5b612d2989828a01612b75565b955050604087013567ffffffffffffffff811115612d4a57612d496126bb565b5b612d5689828a01612c5b565b9450506060612d6789828a016126e1565b9350506080612d7889828a016126e1565b92505060a0612d8989828a01612ca0565b9150509295509295509295565b60008060408385031215612dad57612dac6126b6565b5b6000612dbb858286016126e1565b9250506020612dcc858286016126e1565b9150509250929050565b6000602082019050612deb60008301846129c4565b92915050565b600060208284031215612e0757612e066126b6565b5b6000612e15848285016128e0565b91505092915050565b600061012082019050612e34600083018c61295f565b8181036020830152612e46818b61297f565b90508181036040830152612e5a818a61297f565b9050612e696060830189612935565b612e766080830188612935565b612e8360a0830187612935565b612e9060c08301866129c4565b612e9d60e08301856129c4565b612eab610100830184612935565b9a9950505050505050505050565b60008060408385031215612ed057612ecf6126b6565b5b6000612ede858286016126e1565b925050602083013567ffffffffffffffff811115612eff57612efe6126bb565b5b612f0b85828601612b75565b9150509250929050565b60008060408385031215612f2c57612f2b6126b6565b5b6000612f3a858286016128e0565b9250506020612f4b858286016126e1565b9150509250929050565b600081519050919050565b600082825260208201905092915050565b6000819050602082019050919050565b612f8a816126c0565b82525050565b6000612f9c8383612f81565b60208301905092915050565b6000602082019050919050565b6000612fc082612f55565b612fca8185612f60565b9350612fd583612f71565b8060005b83811015613006578151612fed8882612f90565b9750612ff883612fa8565b925050600181019050612fd9565b5085935050505092915050565b6000602082019050818103600083015261302d8184612fb5565b905092915050565b600081519050919050565b600082825260208201905092915050565b6000819050602082019050919050565b61306a816128b7565b82525050565b6000819050919050565b61308381613070565b82525050565b60a08201600082015161309f6000850182612f81565b5060208201516130b26020850182613061565b5060408201516130c56040850182612f81565b5060608201516130d86060850182612f81565b5060808201516130eb608085018261307a565b50505050565b60006130fd8383613089565b60a08301905092915050565b6000602082019050919050565b600061312182613035565b61312b8185613040565b935061313683613051565b8060005b8381101561316757815161314e88826130f1565b975061315983613109565b92505060018101905061313a565b5085935050505092915050565b6000602082019050818103600083015261318e8184613116565b905092915050565b60006020820190506131ab600083018461295f565b92915050565b600060608201905081810360008301526131cb818661297f565b90506131da6020830185612935565b6131e760408301846129c4565b949350505050565b6131f881613070565b82525050565b600060a0820190506132136000830188612935565b613220602083018761295f565b61322d6040830186612935565b61323a6060830185612935565b61324760808301846131ef565b9695505050505050565b7f53657373696f6e20646f6573206e6f7420657869737400000000000000000000600082015250565b600061328760168361296e565b915061329282613251565b602082019050919050565b600060208201905081810360008301526132b68161327a565b9050919050565b7f4e487b7100000000000000000000000000000000000000000000000000000000600052602260045260246000fd5b6000600282049050600182168061330457607f821691505b602082108103613317576133166132bd565b5b50919050565b7f5573657220686173206e6f7420766f7465640000000000000000000000000000600082015250565b600061335360128361296e565b915061335e8261331d565b602082019050919050565b6000602082019050818103600083015261338281613346565b9050919050565b7f446f75626c6520766f74696e6720617474656d7074656420616e6420626c6f6360008201527f6b65640000000000000000000000000000000000000000000000000000000000602082015250565b60006133e560238361296e565b91506133f082613389565b604082019050919050565b60006020820190508181036000830152613414816133d8565b9050919050565b7f4d7573742068617665206174206c656173742032206f7074696f6e7300000000600082015250565b6000613451601c8361296e565b915061345c8261341b565b602082019050919050565b6000602082019050818103600083015261348081613444565b9050919050565b7f53746172742074696d65206d75737420626520696e2066757475726500000000600082015250565b60006134bd601c8361296e565b91506134c882613487565b602082019050919050565b600060208201905081810360008301526134ec816134b0565b9050919050565b7f456e642074696d65206d7573742062652061667465722073746172742074696d60008201527f6500000000000000000000000000000000000000000000000000000000000000602082015250565b600061354f60218361296e565b915061355a826134f3565b604082019050919050565b6000602082019050818103600083015261357e81613542565b9050919050565b7f5469746c652063616e6e6f7420626520656d7074790000000000000000000000600082015250565b60006135bb60158361296e565b91506135c682613585565b602082019050919050565b600060208201905081810360008301526135ea816135ae565b9050919050565b60008190508160005260206000209050919050565b60006020601f8301049050919050565b600082821b905092915050565b6000600883026136537fffffffffffffffffffffffffffffffffffffffffffffffffffffffffffffffff82613616565b61365d8683613616565b95508019841693508086168417925050509392505050565b6000819050919050565b600061369a613695613690846126c0565b613675565b6126c0565b9050919050565b6000819050919050565b6136b48361367f565b6136c86136c0826136a1565b848454613623565b825550505050565b600090565b6136dd6136d0565b6136e88184846136ab565b505050565b5b8181101561370c576137016000826136d5565b6001810190506136ee565b5050565b601f82111561375157613722816135f1565b61372b84613606565b8101602085101561373a578190505b61374e61374685613606565b8301826136ed565b50505b505050565b600082821c905092915050565b600061377460001984600802613756565b1980831691505092915050565b600061378d8383613763565b9150826002028217905092915050565b6137a68261274f565b67ffffffffffffffff8111156137bf576137be612a78565b5b6137c982546132ec565b6137d4828285613710565b600060209050601f83116001811461380757600084156137f5578287015190505b6137ff8582613781565b865550613867565b601f198416613815866135f1565b60005b8281101561383d57848901518255600182019150602085019450602081019050613818565b8683101561385a5784890151613856601f891682613763565b8355505b6001600288020188555050505b505050505050565b7f4e487b7100000000000000000000000000000000000000000000000000000000600052601160045260246000fd5b60006138a9826126c0565b91507fffffffffffffffffffffffffffffffffffffffffffffffffffffffffffffffff82036138db576138da61386f565b5b600182019050919050565b60006080820190508181036000830152613900818761297f565b905061390f6020830186612935565b61391c6040830185612935565b6139296060830184612935565b95945050505050565b7f53657373696f6e206973206e6f74206163746976650000000000000000000000600082015250565b600061396860158361296e565b915061397382613932565b602082019050919050565b600060208201905081810360008301526139978161395b565b9050919050565b7f53657373696f6e20686173206e6f742073746172746564000000000000000000600082015250565b60006139d460178361296e565b91506139df8261399e565b602082019050919050565b60006020820190508181036000830152613a03816139c7565b9050919050565b7f53657373696f6e2068617320656e646564000000000000000000000000000000600082015250565b6000613a4060118361296e565b9150613a4b82613a0a565b602082019050919050565b60006020820190508181036000830152613a6f81613a33565b9050919050565b7f416c726561647920766f74656400000000000000000000000000000000000000600082015250565b6000613aac600d8361296e565b9150613ab782613a76565b602082019050919050565b60006020820190508181036000830152613adb81613a9f565b9050919050565b7f496e76616c69642063686f696365000000000000000000000000000000000000600082015250565b6000613b18600e8361296e565b9150613b2382613ae2565b602082019050919050565b60006020820190508181036000830152613b4781613b0b565b9050919050565b7f48756d616e20766572696669636174696f6e2072657175697265640000000000600082015250565b6000613b84601b8361296e565b9150613b8f82613b4e565b602082019050919050565b60006020820190508181036000830152613bb381613b77565b9050919050565b6000606082019050613bcf6000830186612935565b613bdc602083018561295f565b613be96040830184612935565b949350505050565b6000613bfc826126c0565b9150613c07836126c0565b9250828201905080821115613c1f57613c1e61386f565b5b92915050565b7f4f6e6c79206f776e65722063616e2063616c6c20746869730000000000000000600082015250565b6000613c5b60188361296e565b9150613c6682613c25565b602082019050919050565b60006020820190508181036000830152613c8a81613c4e565b9050919050565b7f5573657220616c72656164792076657269666965640000000000000000000000600082015250565b6000613cc760158361296e565b9150613cd282613c91565b602082019050919050565b60006020820190508181036000830152613cf681613cba565b9050919050565b7f4f6e6c792073657373696f6e2063726561746f72000000000000000000000000600082015250565b6000613d3360148361296e565b9150613d3e82613cfd565b602082019050919050565b60006020820190508181036000830152613d6281613d26565b9050919050565b7f43616e6e6f742063616e63656c20636c6f7365642073657373696f6e00000000600082015250565b6000613d9f601c8361296e565b9150613daa82613d69565b602082019050919050565b60006020820190508181036000830152613dce81613d92565b9050919050565b7f53657373696f6e20616c72656164792063616e63656c6c656400000000000000600082015250565b6000613e0b60198361296e565b9150613e1682613dd5565b602082019050919050565b60006020820190508181036000830152613e3a81613dfe565b9050919050565b60006020820190508181036000830152613e5b818461297f565b905092915050565b7f4e487b7100000000000000000000000000000000000000000000000000000000600052603260045260246000fd5b7f53657373696f6e20616c726561647920636c6f73656400000000000000000000600082015250565b6000613ec860168361296e565b9150613ed382613e92565b602082019050919050565b60006020820190508181036000830152613ef781613ebb565b9050919050565b7f53657373696f6e2069732063616e63656c6c6564000000000000000000000000600082015250565b6000613f3460148361296e565b9150613f3f82613efe565b602082019050919050565b60006020820190508181036000830152613f6381613f27565b9050919050565b7f496e76616c696420616464726573730000000000000000000000000000000000600082015250565b6000613fa0600f8361296e565b9150613fab82613f6a565b602082019050919050565b60006020820190508181036000830152613fcf81613f93565b905091905056fea264697066735822122003a2fe2cff0ffce275955c6a65ad87c816099db921b1f2a5fe72e25b37f36c2c64736f6c63430008130033",
  "linkReferences": {},
  "deployedLinkReferences": {}
}