{
  "_format": "hh-sol-artifact-1",
  "contractName": "Voting",
  "sourceName": "contracts/Voting.sol",
  "abi": [
    {
      "anonymous": false,
      "inputs": [
        {
          "indexed": false,
          "internalType": "uint256",
          "name": "roomId",
          "type": "uint256"
        },
        {
          "indexed": false,
          "internalType": "string",
          "name": "name",
          "type": "string"
        },
        {
          "indexed": false,
          "internalType": "address",
          "name": "creator",
          "type": "address"
        }
      ],
      "name": "RoomCreated",
      "type": "event"
    },
    {
      "anonymous": false,
      "inputs": [
        {
          "indexed": false,
          "internalType": "uint256",
          "name": "roomId",
          "type": "uint256"
        },
        {
          "indexed": false,
          "internalType": "address",
          "name": "voter",
          "type": "address"
        },
        {
          "indexed": false,
          "internalType": "string",
          "name": "choice",
          "type": "string"
        }
      ],
      "name": "VoteCast",
      "type": "event"
    },
    {
      "inputs": [
        {
          "internalType": "uint256",
          "name": "roomId",
          "type": "uint256"
        },
        {
          "internalType": "string",
          "name": "choice",
          "type": "string"
        },
        {
          "internalType": "string",
          "name": "roomKey",
          "type": "string"
        }
      ],
      "name": "castVote",
      "outputs": [],
      "stateMutability": "nonpayable",
      "type": "function"
    },
    {
      "inputs": [
        {
          "internalType": "string",
          "name": "name",
          "type": "string"
        },
        {
          "internalType": "uint256",
          "name": "startTime",
          "type": "uint256"
        },
        {
          "internalType": "uint256",
          "name": "endTime",
          "type": "uint256"
        },
        {
          "internalType": "bool",
          "name": "isPrivate",
          "type": "bool"
        },
        {
          "internalType": "string",
          "name": "roomKey",
          "type": "string"
        }
      ],
      "name": "createRoom",
      "outputs": [
        {
          "internalType": "uint256",
          "name": "",
          "type": "uint256"
        }
      ],
      "stateMutability": "nonpayable",
      "type": "function"
    },
    {
      "inputs": [
        {
          "internalType": "uint256",
          "name": "roomId",
          "type": "uint256"
        },
        {
          "internalType": "address",
          "name": "user",
          "type": "address"
        }
      ],
      "name": "hasVoted",
      "outputs": [
        {
          "internalType": "bool",
          "name": "",
          "type": "bool"
        }
      ],
      "stateMutability": "view",
      "type": "function"
    },
    {
      "inputs": [],
      "name": "roomCount",
      "outputs": [
        {
          "internalType": "uint256",
          "name": "",
          "type": "uint256"
        }
      ],
      "stateMutability": "view",
      "type": "function"
    },
    {
      "inputs": [
        {
          "internalType": "uint256",
          "name": "",
          "type": "uint256"
        }
      ],
      "name": "rooms",
      "outputs": [
        {
          "internalType": "string",
          "name": "name",
          "type": "string"
        },
        {
          "internalType": "address",
          "name": "creator",
          "type": "address"
        },
        {
          "internalType": "uint256",
          "name": "startTime",
          "type": "uint256"
        },
        {
          "internalType": "uint256",
          "name": "endTime",
          "type": "uint256"
        },
        {
          "internalType": "bool",
          "name": "isPrivate",
          "type": "bool"
        },
        {
          "internalType": "bytes32",
          "name": "roomKeyHash",
          "type": "bytes32"
        },
        {
          "internalType": "bool",
          "name": "exists",
          "type": "bool"
        }
      ],
      "stateMutability": "view",
      "type": "function"
    },
    {
      "inputs": [
        {
          "internalType": "uint256",
          "name": "",
          "type": "uint256"
        },
        {
          "internalType": "address",
          "name": "",
          "type": "address"
        }
      ],
      "name": "votes",
      "outputs": [
        {
          "internalType": "bool",
          "name": "voted",
          "type": "bool"
        },
        {
          "internalType": "string",
          "name": "choice",
          "type": "string"
        }
      ],
      "stateMutability": "view",
      "type": "function"
    }
  ],
  "bytecode": "0x608060405234801561001057600080fd5b50611617806100206000396000f3fe608060405234801561001057600080fd5b50600436106100625760003560e01c80631bae0ac814610067578063438596321461009d57806386819454146100cd578063d23254b4146100fd578063df93a4e31461012e578063e160dc201461014c575b600080fd5b610081600480360381019061007c91906109a1565b610168565b6040516100949796959493929190610ae2565b60405180910390f35b6100b760048036038101906100b29190610b84565b61026c565b6040516100c49190610bc4565b60405180910390f35b6100e760048036038101906100e29190610d40565b6102d7565b6040516100f49190610df3565b60405180910390f35b61011760048036038101906101129190610b84565b6104d9565b604051610125929190610e0e565b60405180910390f35b61013661059f565b6040516101439190610df3565b60405180910390f35b61016660048036038101906101619190610e3e565b6105a5565b005b600060205280600052604060002060009150905080600001805461018b90610ef8565b80601f01602080910402602001604051908101604052809291908181526020018280546101b790610ef8565b80156102045780601f106101d957610100808354040283529160200191610204565b820191906000526020600020905b8154815290600101906020018083116101e757829003601f168201915b5050505050908060010160009054906101000a900473ffffffffffffffffffffffffffffffffffffffff16908060020154908060030154908060040160009054906101000a900460ff16908060050154908060060160009054906101000a900460ff16905087565b60006001600084815260200190815260200160002060008373ffffffffffffffffffffffffffffffffffffffff1673ffffffffffffffffffffffffffffffffffffffff16815260200190815260200160002060000160009054906101000a900460ff16905092915050565b600084841161031b576040517f08c379a000000000000000000000000000000000000000000000000000000000815260040161031290610f75565b60405180910390fd5b6002600081548092919061032e90610fc4565b9190505550600083610343576000801b61036b565b826040516020016103549190611048565b604051602081830303815290604052805190602001205b90506040518060e001604052808881526020013373ffffffffffffffffffffffffffffffffffffffff168152602001878152602001868152602001851515815260200182815260200160011515815250600080600254815260200190815260200160002060008201518160000190816103e4919061120b565b5060208201518160010160006101000a81548173ffffffffffffffffffffffffffffffffffffffff021916908373ffffffffffffffffffffffffffffffffffffffff160217905550604082015181600201556060820151816003015560808201518160040160006101000a81548160ff02191690831515021790555060a0820151816005015560c08201518160060160006101000a81548160ff0219169083151502179055509050507f9a658b74d50d3a24b6621fae25f87f046bab19ad7b3dc633600ac2f592b760ce60025488336040516104c2939291906112dd565b60405180910390a160025491505095945050505050565b6001602052816000526040600020602052806000526040600020600091509150508060000160009054906101000a900460ff169080600101805461051c90610ef8565b80601f016020809104026020016040519081016040528092919081815260200182805461054890610ef8565b80156105955780601f1061056a57610100808354040283529160200191610595565b820191906000526020600020905b81548152906001019060200180831161057857829003601f168201915b5050505050905082565b60025481565b82600080828152602001908152602001600020600201544210156105fe576040517f08c379a00000000000000000000000000000000000000000000000000000000081526004016105f590611367565b60405180910390fd5b60008082815260200190815260200160002060030154421115610656576040517f08c379a000000000000000000000000000000000000000000000000000000000815260040161064d906113d3565b60405180910390fd5b600080600086815260200190815260200160002090508060060160009054906101000a900460ff166106bd576040517f08c379a00000000000000000000000000000000000000000000000000000000081526004016106b49061143f565b60405180910390fd5b8060010160009054906101000a900473ffffffffffffffffffffffffffffffffffffffff1673ffffffffffffffffffffffffffffffffffffffff163373ffffffffffffffffffffffffffffffffffffffff160361074f576040517f08c379a0000000000000000000000000000000000000000000000000000000008152600401610746906114ab565b60405180910390fd5b8060040160009054906101000a900460ff16156107d35780600501548360405160200161077c9190611048565b60405160208183030381529060405280519060200120146107d2576040517f08c379a00000000000000000000000000000000000000000000000000000000081526004016107c990611517565b60405180910390fd5b5b6001600086815260200190815260200160002060003373ffffffffffffffffffffffffffffffffffffffff1673ffffffffffffffffffffffffffffffffffffffff16815260200190815260200160002060000160009054906101000a900460ff1615610874576040517f08c379a000000000000000000000000000000000000000000000000000000000815260040161086b90611583565b60405180910390fd5b6040518060400160405280600115158152602001858152506001600087815260200190815260200160002060003373ffffffffffffffffffffffffffffffffffffffff1673ffffffffffffffffffffffffffffffffffffffff16815260200190815260200160002060008201518160000160006101000a81548160ff0219169083151502179055506020820151816001019081610911919061120b565b509050507ff707341d6361ac6d7fe6b6db1fbb91b1d8634754ce51f2244ccbfab475d327f4853386604051610948939291906115a3565b60405180910390a15050505050565b6000604051905090565b600080fd5b600080fd5b6000819050919050565b61097e8161096b565b811461098957600080fd5b50565b60008135905061099b81610975565b92915050565b6000602082840312156109b7576109b6610961565b5b60006109c58482850161098c565b91505092915050565b600081519050919050565b600082825260208201905092915050565b60005b83811015610a085780820151818401526020810190506109ed565b60008484015250505050565b6000601f19601f8301169050919050565b6000610a30826109ce565b610a3a81856109d9565b9350610a4a8185602086016109ea565b610a5381610a14565b840191505092915050565b600073ffffffffffffffffffffffffffffffffffffffff82169050919050565b6000610a8982610a5e565b9050919050565b610a9981610a7e565b82525050565b610aa88161096b565b82525050565b60008115159050919050565b610ac381610aae565b82525050565b6000819050919050565b610adc81610ac9565b82525050565b600060e0820190508181036000830152610afc818a610a25565b9050610b0b6020830189610a90565b610b186040830188610a9f565b610b256060830187610a9f565b610b326080830186610aba565b610b3f60a0830185610ad3565b610b4c60c0830184610aba565b98975050505050505050565b610b6181610a7e565b8114610b6c57600080fd5b50565b600081359050610b7e81610b58565b92915050565b60008060408385031215610b9b57610b9a610961565b5b6000610ba98582860161098c565b9250506020610bba85828601610b6f565b9150509250929050565b6000602082019050610bd96000830184610aba565b92915050565b600080fd5b600080fd5b7f4e487b7100000000000000000000000000000000000000000000000000000000600052604160045260246000fd5b610c2182610a14565b810181811067ffffffffffffffff82111715610c4057610c3f610be9565b5b80604052505050565b6000610c53610957565b9050610c5f8282610c18565b919050565b600067ffffffffffffffff821115610c7f57610c7e610be9565b5b610c8882610a14565b9050602081019050919050565b82818337600083830152505050565b6000610cb7610cb284610c64565b610c49565b905082815260208101848484011115610cd357610cd2610be4565b5b610cde848285610c95565b509392505050565b600082601f830112610cfb57610cfa610bdf565b5b8135610d0b848260208601610ca4565b91505092915050565b610d1d81610aae565b8114610d2857600080fd5b50565b600081359050610d3a81610d14565b92915050565b600080600080600060a08688031215610d5c57610d5b610961565b5b600086013567ffffffffffffffff811115610d7a57610d79610966565b5b610d8688828901610ce6565b9550506020610d978882890161098c565b9450506040610da88882890161098c565b9350506060610db988828901610d2b565b925050608086013567ffffffffffffffff811115610dda57610dd9610966565b5b610de688828901610ce6565b9150509295509295909350565b6000602082019050610e086000830184610a9f565b92915050565b6000604082019050610e236000830185610aba565b8181036020830152610e358184610a25565b90509392505050565b600080600060608486031215610e5757610e56610961565b5b6000610e658682870161098c565b935050602084013567ffffffffffffffff811115610e8657610e85610966565b5b610e9286828701610ce6565b925050604084013567ffffffffffffffff811115610eb357610eb2610966565b5b610ebf86828701610ce6565b9150509250925092565b7f4e487b7100000000000000000000000000000000000000000000000000000000600052602260045260246000fd5b60006002820490506001821680610f1057607f821691505b602082108103610f2357610f22610ec9565b5b50919050565b7f496e76616c69642074696d652072616e67650000000000000000000000000000600082015250565b6000610f5f6012836109d9565b9150610f6a82610f29565b602082019050919050565b60006020820190508181036000830152610f8e81610f52565b9050919050565b7f4e487b7100000000000000000000000000000000000000000000000000000000600052601160045260246000fd5b6000610fcf8261096b565b91507fffffffffffffffffffffffffffffffffffffffffffffffffffffffffffffffff820361100157611000610f95565b5b600182019050919050565b600081905092915050565b6000611022826109ce565b61102c818561100c565b935061103c8185602086016109ea565b80840191505092915050565b60006110548284611017565b915081905092915050565b60008190508160005260206000209050919050565b60006020601f8301049050919050565b600082821b905092915050565b6000600883026110c17fffffffffffffffffffffffffffffffffffffffffffffffffffffffffffffffff82611084565b6110cb8683611084565b95508019841693508086168417925050509392505050565b6000819050919050565b60006111086111036110fe8461096b565b6110e3565b61096b565b9050919050565b6000819050919050565b611122836110ed565b61113661112e8261110f565b848454611091565b825550505050565b600090565b61114b61113e565b611156818484611119565b505050565b5b8181101561117a5761116f600082611143565b60018101905061115c565b5050565b601f8211156111bf576111908161105f565b61119984611074565b810160208510156111a8578190505b6111bc6111b485611074565b83018261115b565b50505b505050565b600082821c905092915050565b60006111e2600019846008026111c4565b1980831691505092915050565b60006111fb83836111d1565b9150826002028217905092915050565b611214826109ce565b67ffffffffffffffff81111561122d5761122c610be9565b5b6112378254610ef8565b61124282828561117e565b600060209050601f8311600181146112755760008415611263578287015190505b61126d85826111ef565b8655506112d5565b601f1984166112838661105f565b60005b828110156112ab57848901518255600182019150602085019450602081019050611286565b868310156112c857848901516112c4601f8916826111d1565b8355505b6001600288020188555050505b505050505050565b60006060820190506112f26000830186610a9f565b81810360208301526113048185610a25565b90506113136040830184610a90565b949350505050565b7f566f74696e67206e6f7420737461727465640000000000000000000000000000600082015250565b60006113516012836109d9565b915061135c8261131b565b602082019050919050565b6000602082019050818103600083015261138081611344565b9050919050565b7f566f74696e6720656e6465640000000000000000000000000000000000000000600082015250565b60006113bd600c836109d9565b91506113c882611387565b602082019050919050565b600060208201905081810360008301526113ec816113b0565b9050919050565b7f526f6f6d20646f6573206e6f7420657869737400000000000000000000000000600082015250565b60006114296013836109d9565b9150611434826113f3565b602082019050919050565b600060208201905081810360008301526114588161141c565b9050919050565b7f43726561746f722063616e6e6f7420766f746500000000000000000000000000600082015250565b60006114956013836109d9565b91506114a08261145f565b602082019050919050565b600060208201905081810360008301526114c481611488565b9050919050565b7f496e76616c696420726f6f6d206b657900000000000000000000000000000000600082015250565b60006115016010836109d9565b915061150c826114cb565b602082019050919050565b60006020820190508181036000830152611530816114f4565b9050919050565b7f416c726561647920766f74656400000000000000000000000000000000000000600082015250565b600061156d600d836109d9565b915061157882611537565b602082019050919050565b6000602082019050818103600083015261159c81611560565b9050919050565b60006060820190506115b86000830186610a9f565b6115c56020830185610a90565b81810360408301526115d78184610a25565b905094935050505056fea26469706673582212200e6b70f76d00c9218816f88171be86e2431cdb6d493c4b16945781291ac61f4164736f6c63430008120033",
  "linkReferences": {},
  "deployedLinkReferences": {}
}